:1000000012C07CC0189518951895189518951895D4
:1000100018951CC118951895189518951895189548
:100020001895189518958FE58DBFC0E4E8E34E2E1E
:1000300084E08EBFD4E0F4E05F2EEEEFF3E0A0E6C4
:10004000B0E0A89584B7082E877F84BF88E1992700
:1000500081BD91BD88278D933197E9F78CE089B9EF
:1000600080E080BD88E18AB966248FEF87BB8E9AD5
:100070008FEF84BB85B78C7F826085BF85E083BFAF
:1000800080E08FBD85E08EBD78948BB780648BBF98
:1000900089B7816089BFA6E6B0E088278C9385E0A8
:1000A0008EBDA6E6B0E0E0E9F3E05FD109F003C061
:1000B00081E088BB22C0E4E9F3E057D109F003C036
:1000C00082E088BB1AC0E6E9F3E04FD109F003C033
:1000D00084E088BB12C0EAE9F3E047D109F003C02D
:1000E00088E088BB0AC0EEE9F3E03FD109F003C025
:1000F00080E188BB02C080E088BBD3CF0F921F9203
:100100002F923F924F925F927F92AF92BF920F9346
:100110001F932F933F934F935F936F937F938F938F
:100120009F93AF93BF93CF93DF93EF93FF938FB7DB
:100130008F93969A80E08093650080E090E09DBD6B
:100140008CBD85E08EBD0027A0E3B0E08C9182FBE2
:100150000EF401E040E0041709F001C0F4CF8EB5C1
:10016000887F8EBDACE4B0E08D919C91A1E6B0E0BB
:100170008D939C93A1E6B0E00D911C91023050E06C
:10018000150710F009F001C041C0A1E6B0E00D91E3
:100190001C910E3551E0150708F015C0A6E6B0E039
:1001A000ACD0E4E9F3E0C8D0A6E6B0E0AFD0B4D07C
:1001B000A3E6B0E08C91A4E6B0E0D1D0C6D08C919B
:1001C00089238C9314C0A6E6B0E097D0E2EAF3E06E
:1001D000B3D0A6E6B0E09AD09FD0A3E6B0E08C9171
:1001E000A4E6B0E0BCD0B1D09C91982B9C93A3E640
:1001F000B0E08C918F5F8C9300916300033010F01E
:1002000009F001C003C080E080936300A4E6B0E081
:100210008C9185BB8F918FBFFF91EF91DF91CF9133
:10022000BF91AF919F918F917F916F915F914F910E
:100230003F912F911F910F91BF90AF907F905F9052
:100240004F903F902F901F900F9018950F921F92F4
:100250002F923F924F925F927F92AF92BF920F93F5
:100260001F932F933F934F935F936F937F938F933E
:100270009F93AF93BF93CF93DF93EF93FF938FB78A
:100280008F93882783BF80E080935200A5E6B0E07B
:100290008C918F5F8C9300916500043109F00FC041
:1002A0009698A6E6B0E088278C9380E0809364005F
:1002B00080E080936300A4E6B0E08C9185BB85E08C
:1002C00083BF8F918FBFFF91EF91DF91CF91BF914E
:1002D000AF919F918F917F916F915F914F913F91DE
:1002E0002F911F910F91BF90AF907F905F904F9093
:1002F0003F902F901F900F9018958F938D9188238A
:10030000E9F711978F910895A0E2B4E08D918823C9
:1003100011F005D0FBCF08958DE001D08AE05D9B00
:10032000FECF8CB908953197F1F70895689462F87B
:100330000895E89462F8089504D00D920020E1F742
:100340000895C89531960020089591E0882321F002
:100350008894991F8A95E9F7892F90950895883098
:1003600018F011968850FBCF0895689401C0E89466
:10037000AF93BF938D9116F0919102C0E2DF902D63
:10038000891718F011F48823A9F7BF91AF91089548
:100390002E5F00002E002E2E00005F5F5F002E2ECD
:0403A0005F005F009B
:00000001FF
